:020000040800F2
:10000000F0040020C5000008F91900088B1800084A
:1000100000000000000000000000000000000000E0
:10002000000000000000000000000000FD190008B2
:100030000000000000000000FB190008FF19000884
:10004000D700000800000000D7000008D700000813
:10005000D7000008D7000008D7000008D700000824
:100060000000000029080008D7000008D700000899
:10007000D7000008D7000008D700000800000000E3
:100080004D1A00080000000000000000D700000822
:1000900000000000D7000008D7000008D7000008C3
:1000A00000000000D700000800000000D700000892
:1000B0000348854600F0CEFA00480047291C000896
:1000C000F00400200448804704480047FEE7FEE7AC
:1000D000FEE7FEE7FEE7FEE74B1A0008B100000866
:1000E00030B50B46014600202022012409E00D46D0
:1000F000D5409D4205D31D469540491B2546954058
:1001000040191546521E002DF1DC30BDF0B51FB46C
:100110000646002082B005464024019100901BE075
:10012000019922460F46304600F020F8049A059BBC
:10013000801A994110D310461946224600F0DAF988
:10014000361A8F410197224601200021009F00F0BE
:10015000D1F938184D4100902046641E0028DFDC9C
:10016000019B00982946324607B0F0BD10B5202A01
:1001700004DB0846203AD040002110BD0B46D34096
:10018000D0402024A21A91400843194610BDD2B293
:1001900001E00270401C491EFBD270470022F6E7C6
:1001A00010B513460A4604461946FFF7F0FF2046ED
:1001B00010BD024670B54A40D30FDB0740002DD07A
:1001C0004A002AD0010E140E000212020919400A38
:1001D000520A8418E50104465443000A120A2E0408
:1001E0005043A4194219200CC543AA18120C01252A
:1001F000AD03521C521912047F39240400D0521C42
:10020000104301D44000491EC2B20C06C009201898
:10021000401C4008802A02D003E0002070BD400846
:100220004000002900DA0020184370BD70B5024676
:100230004A40D50F40004A00ED0740085208002808
:1002400014D0002A12D0C40DD30D41020120C005E4
:100250005202490A520AE41A091812187D349142CE
:1002600001D3641C00E04900002C01DA002070BDBD
:100270000023914201D3891A034340084900002812
:10028000F7D100290AD0914202D10121C90705E026
:10029000914201D2012101E00121C943E005C018CA
:1002A000401900F037F970BDF0B51FB488B00B9954
:1002B0000998002448400999C00F4900490809914C
:1002C000C0070B990090490049080B9109990898BB
:1002D000A64608431CD00B990A98084318D00998E1
:1002E00001244000420D4800410D099824050003F7
:1002F000000B204309900B980003000B20430B9048
:1003000050181C494018002201901446104605E080
:10031000002001460DB0F0BD032801DA034600E0DD
:1003200003239C46C11A0AAE0AE05F0008ADED5BEC
:100330004F00F75B7D430027AA187C41491C5B1ED8
:100340006145F2DD410004AB5A522104120C0A430C
:10035000240C401C0828DFDB0198029000997046AD
:1003600001910090059B049A0799069800F020F9E6
:10037000D0E700000DFCFFFFF0B50C465C4085B0F7
:10038000E40FE40703944C000026640859009446E7
:10039000490802460296224321D062460A431ED0F3
:1003A0006200570D4A000E032303550D0124024637
:1003B0002C492405781B1B0B360B4018234326437E
:1003C000614600901C46501AB44103D30098401C6B
:1003D000009002E0921800985B41002803DA0020A8
:1003E000014605B0F0BD00200121090507468646FB
:1003F00011E064461D46141BB54106D36546521BE9
:10040000B341744607430C43A646CD07400849084C
:10041000284392185B4105460D43EAD11046184324
:1004200013D06046194650407140084306D06046DC
:10043000101AB34106D20122002306E00022012354
:10044000DB0702E00122D2435310009874460105F5
:10045000381C6141029C039D0019694100F09BF822
:10046000BFE70000FD03000010B5002296231146EF
:1004700000F058F810BD00000EB5054902910021AA
:1004800000910A460B46019100F092F803B000BDBE
:1004900033040000C20FD207400040080BD0C10D4A
:1004A0000723DB01C91840020905400A1143C208AD
:1004B000400711437047002001467047CB0FDB0710
:1004C000490010B5490802460A4307D00A0D07241F
:1004D0000903E401090B121B002A01DC002010BDF6
:1004E000C900440F0C43C100E018D205801800F089
:1004F00011F810BD10B5202A04DB0146203A9140C6
:10050000002010BD914020239C1A0346E34019436C
:10051000904010BD002904DA401C490001D1400878
:100520004000704770B40024050C05D1102400046D
:1005300002D1002921D01124050E01D10002083476
:10054000050F01D10001241D850F01D18000A41CDD
:10055000002801DB4000641C002908D020252E1B48
:100560000D46F540A14000D0012129430843010672
:100570001B1B000ADB1D02D5002070BC7047DB0589
:10058000181880180029F8DA401C4900F5D170BC11
:1005900040084000704710B5002B08DA0024401CCA
:1005A000614192185B411A4301D14008400010BDDF
:1005B000F0B51FB482B005460C0003D0084601F028
:1005C000D2FA02E001F0CFFA203002460090214634
:1005D0002846FFF78FFF049B059A04460F461843F1
:1005E0001143084314D0184610431BD000984021F3
:1005F0000A1A18460599FFF7B9FD05460E46009AF6
:1006000005990498FFF776FF084305D0012004E020
:100610002046394607B0F0BD0020C11705430E4300
:100620002C43374300990E986305401A7905E40A74
:1006300000220C43FD0A0A3002D500200146E9E7FA
:100640000105101969410C9C0D9D00196941FFF7C6
:10065000A2FFDFE7064C0125064E05E0E36807CC64
:100660002B430C3C98471034B442F7D3FFF724FDDA
:10067000A81C0008C81C000810B50146406A826B1F
:1006800050231A420AD1816B012252021143816325
:100690000168CA681205920F05D020E0006B026B5A
:1006A0000846904710BD827E002A18D10A681207BA
:1006B00015D58A6853070122002B09DB4B680C24EF
:1006C000A3434B60816B130299431143816306E09E
:1006D000816B202319438163C16B1143C16300F017
:1006E0005BF910BD10B5406A816B402211438163F4
:1006F000C16B04221143C16300F050F910BD10B565
:10070000406A00F04AF910BDF8B504460020009098
:10071000206881688907890F012905D10168C90707
:100720002CD1C168090429D48168154A10261140CA
:100730000125002915D1816829438160124811499A
:100740000068FFF7CDFC00E0401E00900028FBD1C0
:1007500000F0E6FB07460CE000F0E2FBC01B0228BD
:1007600007D9A06B3043A063E06B2843E06301200E
:10077000F8BD20680068C043C007EDD10020F8BD77
:100780001700008040420F002800002070B51E486E
:100790000168090736D501680822114301601B4D25
:1007A00000242E460C366000285AFFF75DFEA1009B
:1007B0007050641CE4B2022CF5D37068FFF76AFE37
:1007C000044613480D46408BFFF756FE114A124B64
:1007D000FFF76AFD22462B46FFF7CEFDFFF76EFEC0
:1007E0000A4C083C60603168FFF7E3FC0B49FFF7F7
:1007F0001DFDE0600A49E068FFF718FD0949FFF7B1
:10080000D8FC206170BD00000024014008000020D9
:10081000A0F7FF1F6666666666660A4000F07F45C1
:100820000000A0400000184210B5024800F00CFA89
:1008300010BD00006C00002010B50446006805499A
:1008400040181421FFF74CFC800020640248E0634C
:1008500010BD0000F8FFFDBF0000024030B5056C80
:100860000124AC40C56B6C60046863604368102B66
:10087000036803D099600068C26030BD9A60006868
:10088000C16030BD70470000F8B500250446203433
:100890000095227D012A39D00122227503689E68C5
:1008A000760767D4384F4E68BE424DD09E6A0F78A7
:1008B000BA4016439E620123C26A1B079A421FD0A8
:1008C000012A1DD0022A1BD0032A19D0042A17D0CE
:1008D000052A15D0062A13D0072A11D002688B6882
:1008E00056697607760FB3420AD05369DB08DB00FE
:1008F0005361006842690B7A5B075B0F1A434261E0
:100900000A68102A04D0112A02D038E00220F8BD6B
:100910001E488368102A07D0012292051343836082
:100920000868102803D02AE00122D205F6E719480A
:1009300017490068FFF7D4FB0A21484300E0401E36
:1009400000900028FBD11AE0986A0E78B2409043DC
:1009500098620968102901D0112910D10B488268CA
:10096000102904D0012189058A43826007E0012112
:10097000C905F9E7816B202211438163012500201D
:1009800020752846F8BD0000011000000027014036
:1009900040420F0028000020704770477047000059
:1009A000F8B500260446002805D0A06B2546203562
:1009B000002802D007E00120F8BD0020E063287580
:1009C000204600F0A9F8A06B1022C006002870DBBA
:1009D0002068816849076CD4A16B130199430223F5
:1009E0001943A16381688907890F012905D101682D
:1009F000C9070FD1C16809040CD4C16818239943F1
:100A0000A3681943C1602068016963688900890887
:100A1000194301612068C1683D4B1940C160207EC7
:100A2000617E8003C9030843A17E4B031843A36A78
:100A3000012B02D001231B0300E000231843E368CD
:100A400018432369022B09D0002318432B79E57E34
:100A50005B0018430123012D02D00AE00423F4E7D0
:100A6000002927D0A16B20252943A163E16B1943FD
:100A7000E163E1690D46FF3DC23D02D0256A29438D
:100A800008432168CD680543CD600125E16A2D0743
:100A9000A94213D0012911D002290FD003290DD06A
:100AA00004290BD0052909D0062907D0072905D02C
:100AB00010E028E0012109040843DAE721684D69C4
:100AC000ED08ED004D6121684D69A78D7F077F0F0F
:100AD0003D434D612168C9680E4D2940814207D1CF
:100AE0000020E063A06B80088000401CA06308E049
:100AF000A06B022188431043A063E06B1843E063BE
:100B000001263046F8BDA06B1043A063F8E7000053
:100B10001902FEFFE7FF3F8370B586B0054614213A
:100B20006846FFF73BFB1C492868884231D11B49C6
:100B30008A69401502438A618A69024005924A69BE
:100B4000000202434A6149690026014005910120E3
:100B5000009003200190092069460296C00600F02B
:100B600021F90F480F4C41C480202660606040008E
:100B7000A0608000E06020202061C0016061094821
:100B8000083C00F0AFF8002801D0FFF77BFE2C6393
:100B9000656206B070BD00000024014000100240F4
:100BA000080002406C000020F7B5044600680025EC
:100BB000806840073DD426462036307D01280AD083
:100BC00001273775607E012807D02046FFF79CFD7E
:100BD000050002D02EE00220FEBDA06B16490840A1
:100BE000FF2101310843A0630020E0633075216BD1
:100BF00012488862216B1248C862216B1148086351
:100C000021681C200860206841681022114341605F
:100C10002068C1683943C1602168206B4031029B64
:100C2000019A00F089F820688168042211438160EC
:100C300000E002252846FEBDFEF1FFFF7906000810
:100C4000FF060008E5060008F0B4C16B0D680168F6
:100C50000C680422066C1346B3402B420DD0630788
:100C60000BD50B689B0602D40B6893430B60016C99
:100C70008A40C16B4A60C16A19E00227B740024648
:100C80002F4001232032002F15D0A70713D50C6861
:100C9000A40604D40C680A25AC430C605370036CA2
:100CA00002219940C36B596000211170816A0029AB
:100CB00016D0F0BC08470827B7402F4210D02407B1
:100CC0000ED50C680E25AC430C60046C1946A1408F
:100CD000C46B61608363537000211170016BE6E7A0
:100CE000F0BC704770B5040021D0022120462030AE
:100CF00005464170226811680E48A368014060688B
:100D000026691843E3683343184363691843A369AA
:100D10001843E3691843084310602046FFF78CFD31
:100D20000021A163012068702970084670BD012070
:100D300070BD00000FC0FFFFF8B504468C462030A0
:100D400001780025012909D0012606704178002785
:100D5000012905D0077002252846F8BD0220F8BDFC
:100D600002214170A76320680168490849000160B9
:100D700061462046FFF772FDE06A0028206801689E
:100D800002D00E22114306E00A22114301602068BE
:100D900001680422914301602068016831430160C9
:100DA000DAE70000FCB500230124A1E027462A462B
:100DB0009F403A4073D04D68012D05D0022D03D0DD
:100DC000112D01D0122D16D185680326AC465D0089
:100DD000AE46AE406546B543AC46CE687546AE40BD
:100DE00065462E43866046680D79BE43ED06ED0FDD
:100DF0009D4035434560C6685F000325BD40AE4653
:100E0000AE4335468E68BE402E43C6604E68022E05
:100E100001D0122E14D1DE08B60036180196366ABB
:100E20005D07B446EE0E0F25B54000966646AE430C
:100E3000B4460D69009EB54066462E43019D2E6264
:100E400006687546AE430D79AD07AD0FBD4035431D
:100E500005604D68ED004AD5284DAE692643AE6168
:100E6000AD699E08ED07ED0F0095254DB60075198B
:100E7000AC46AD689E07360F0F27B740BD43092724
:100E8000FF06B84201D1002710E01E4FB84201D141
:100E900001270BE01C4FB84202D1022706E026E0F2
:100EA0001A4FB84201D1032700E00527B7402F436E
:100EB0006546AF60164E35684F689543FF0300D511
:100EC0001543356075684F689543BF0300D51543DA
:100ED0007560B5684F689543FF0200D51543B5604E
:100EE000F5684F689543BF0200D51543F5605B1C5C
:100EF0000A681546DA4000D058E7FCBD00100240F1
:100F0000000001400004004800080048000C0048B0
:100F100000040140002A01D081617047816270475E
:100F200001488068704700001C000020024881686A
:100F300002788918816070471C00002010B50648AF
:100F40000168102211430160002000F007F800F052
:100F500027F8002010BD00000020024070B50446B4
:100F60000D4D7D202978C000FFF7BAF801460B48E7
:100F70000068FFF7B5F800F0BFFA002809D1042C8B
:100F800007D200222146401E00F02AF800206C60A3
:100F900070BD012070BD00001C0000202800002052
:100FA00008B50848816901221143816181691140B6
:100FB0000091C26901040A43C261C06908400090FF
:100FC00008BD000000100240002805DBC106C90E64
:100FD00001208840014908607047000000E100E0FE
:100FE00010B500F0EFFD10BDF8B50F46060059D062
:100FF0003A4D2868C007C00FB84209D22868400897
:101000004000384328602868C007C00FB84249D163
:101010003068334C81070CD5400704D56068072140
:101020000902084360606068F0218843B1680843A2
:1010300060603078C00726D0706801280ED0216823
:1010400002280ED0890700292CDA616889088900F6
:1010500001436160FFF764FF00900DE021688903A0
:10106000F1E78901EFE7FFF75BFF0099411A1D489F
:10107000814201D90320F8BD60680C2108407168E5
:1010800089008842EFD12868C007C00FB8420BD949
:10109000286840084000384328602868C007C00F0F
:1010A000B84201D00120F8BD3078400706D560680D
:1010B000072109028843F1680843606000F018F8CE
:1010C0006168094A0906090F515CC8400749086070
:1010D0000020FFF743FF0020F8BD00000020024081
:1010E0000010024088130000981C0008280000200F
:1010F00010B514A30FCB88B06C460FC415A30FCB4B
:101100000FC4184A51680C200B4603401648042BA4
:1011100016D0082B14D18B021B0F6C46E45CD26AEC
:1011200004AB1207120F9A5CC90305D500231946B8
:10113000FEF7ECFF214601E020460C4900F02AFDB5
:1011400008B010BD02030405060708090A0B0C0DC0
:101150000E0F10100102030405060708090A0B0C04
:101160000D0E0F100010024000127A0000093D0021
:10117000FEB5040070D02078DC4DC0074AD0686806
:101180000007800F012807D068680007800F022839
:1011900009D16868C00306D5286880033AD560681D
:1011A0000028E7D036E06168012914D001208004CE
:1011B000002901D0052914D02A68012109048A4395
:1011C0002A602968814329606068002816D0FFF7EB
:1011D000A7FE06460EE0286801210904084328609E
:1011E000F2E7296801432960F5E7FFF799FE801BC4
:1011F00064286ED828688003F7D50BE0FFF790FECF
:10120000064604E0FFF78CFE801B6428F1D82868AE
:101210008003F7D420780126800700283CDA68682C
:101220000007800F07D068680007800F022809D1E7
:101230006868C00306D42868800716D5E0680128CE
:101240000AD112E0E0680028286816D030432860F0
:10125000FFF766FE074605E043E1FFF761FEC01BAE
:101260000228C6D828688007F7D52868F82188435F
:101270002169C900084328600EE04008400028604A
:10128000FFF74EFE074604E0FFF74AFEC01B0228A8
:10129000AFD828688007F7D42078000722D5E06906
:1012A0000028686A0ED030436862FFF739FE0746AF
:1012B00004E0FFF735FEC01B02289AD8686A800751
:1012C000F7D50FE0400840006862FFF729FE0746A7
:1012D00005E09DE0FFF724FEC01B022889D8686A5C
:1012E0008007F7D4207804274007002860DA002020
:1012F0000190E869C00008D4E969B8060143E961D2
:10130000E969014001200091019079480168C9050F
:1013100011D40168821511430160FFF701FE0090AE
:1013200005E0FFF7FDFD0099401A642870D8704869
:101330000068C005F5D5A06801280AD0002801D0B2
:10134000052810D0286A400840002862286AB8435F
:1013500001E0286A30432862A068002812D0FFF715
:10136000DFFD00900AE0286A38432862F1E7FFF7C2
:10137000D7FD0099411A5F48814249D8286A800701
:10138000F5D50DE0FFF7CCFD009006E0FFF7C8FDB6
:101390000099411A574881423AD8286A8007F5D403
:1013A0000198002804D0E969012000078143E96120
:1013B0002078C00635D5606901280CD0401D686BC7
:1013C00023D038436863686B400840006863FFF7C8
:1013D000A7FD064622E0686B38436863686B3043BC
:1013E0006863FFF79DFD064604E0FFF799FD801B4B
:1013F00002285BD8686B8007F7D5686BF8218843B3
:10140000A169C900084368630BE0B8436863F4E767
:101410004CE0FFF785FD801B022847D8686B8007EA
:10142000F7D4206A00285ED069680907890F02296D
:1014300042D0012636060228286805D0B04328602D
:10144000FFF76EFD044633E0B0432860FFF768FD08
:10145000074604E0FFF764FDC01B022826D8286871
:101460008001F7D4E86AE16A000900010843E862F4
:10147000616AA06A084369683D22120491430843E7
:101480006860286830432860FFF74AFD044604E09E
:10149000FFF746FD001B022808D828688001F7D511
:1014A00021E0FFF73DFD001B022801D90320FEBD0E
:1014B00028688001F5D416E00128F8D06868E96A48
:1014C00001221204636A02409A420AD10907E26AC1
:1014D000090F914205D10F2189040840A16A884271
:1014E00001D00120FEBD0020FEBD00000010024022
:1014F0000070004088130000094910B5401E884262
:1015000001D9012010BD074C60610321081F00F0C4
:1015100059FB0020A06107202061002010BD0000C1
:10152000FFFFFF0000E000E070477047F0B50246A3
:101530002032137F012B1BD001261677022353770D
:1015400005686B68AC687027BB430F681F436F600A
:101550000068084B984202D0074B984204D1802380
:1015600049689C4321438160567700201077F0BD85
:101570000220F0BD002C01400004004070B50400C2
:1015800005D025462035687F002802D006E00120DE
:1015900070BD00202877204600F00AF80220687706
:1015A000211D206800F06CFA01206877002070BDD2
:1015B00008B50068094988420FD10948C26902216B
:1015C0000A43C261C0690022084000901146102001
:1015D000FFF706FD1020FFF7F7FC08BD00040040F0
:1015E000001002400268D36801210B43D3600068F9
:1015F00082685207520F062A02D002680A4302602C
:1016000000207047F8B5054604462035287F01289C
:1016100017D001262E7702206877226890687727F6
:10162000FF23B8431B02984390600A68502A31D0C8
:101630000EDC202A4BD006DC002A48D0102A3AD1F2
:1016400045E00220F8BD302A41D0402A33D136E0AF
:10165000602A27D0702A12D001200003121A2AD043
:10166000824228D1CB684A688968206800F044FA31
:101670002068816801229203114381601BE0CB68DE
:101680004A688968206800F037FA2168886838431A
:10169000886010E0CA684968206800F040FA50216C
:1016A000206806E0CA684968206800F049FA6021AD
:1016B000206800F02CFA6E7700202877F8BDCA6801
:1016C0004968206800F02BFA40212068F1E71146B4
:1016D0002068EEE7704770B5044600680169002590
:1016E000C9438907002915DBC168C943890711D49B
:1016F000E91E01610120207720688069800720466B
:1017000002D0FFF7E7FF04E000F096F8204600F073
:10171000B9F8257720680169C943490717D4C1681A
:10172000C943490713D40421C9430161022020772A
:10173000206880698005800F204602D0FFF7CAFF2D
:1017400004E000F079F8204600F09CF82577206846
:101750000169C943090716D4C168C943090712D4EE
:101760000821C9430161042020772068C0698007EF
:10177000204602D0FFF7AEFF04E000F05DF82046FF
:1017800000F080F8257720680169C943C90617D49D
:10179000C168C943C90613D41021C9430161082097
:1017A00020772068C0698005800F204602D0FFF7AF
:1017B00091FF04E000F040F8204600F063F8257740
:1017C00020680169C943C90708D1C168C943C9076D
:1017D00004D1891E0161204600F055F82068016996
:1017E000C943090609D4C168C943090605D4802143
:1017F000C94301612046FFF797FE20680169C9438C
:10180000490609D4C168C943490605D44021C943E2
:101810000161204600F038F820680169C943890653
:1018200009D4C168C943890605D42021C94301618F
:101830002046FFF77AFE70BD704770B50E46040073
:1018400005D025462035687F002802D006E001201B
:1018500070BD00202877204600F013F8022068773A
:10186000211D206800F00CF92068016808229143CE
:101870000160206801683143016001206877002021
:1018800070BD7047704770477047FEE73EB5002453
:101890001B491C4800940194029412C00460012565
:1018A000856004214460C160047444748574C47408
:1018B000FF21C23184614161014618310D71056219
:1018C0000838FFF76DF8002801D0FEF7DBFF012094
:1018D000000301906946029500940A48FEF7D4FF80
:1018E000002801D0FEF7CEFF112000906946054880
:1018F000FEF7CAFF002801D0FEF7C4FF3EBD00007E
:10190000002401402C00002008B50848416901224C
:1019100011434161406910400022009011460920A6
:10192000FFF75EFB0920FFF74FFB08BD00100240E8
:1019300010B586B014216846FEF730FC0E484269A7
:10194000012149040A434261406909240840E40630
:1019500005900122E0212046FFF7DCFAE02000900C
:101960000021012002910391019069462046FFF772
:1019700019FA06B010BD00000010024010B586B084
:10198000002400941A480194029403940494174983
:1019900005940160174984604160046113218461EA
:1019A000C160FFF7EBFD002801D0FEF76BFF0120BF
:1019B0000003009069460E48FFF724FE002801D07E
:1019C000FEF760FF08210A48FFF737FF002801D023
:1019D000FEF758FF049404A905480594FFF7A6FDF7
:1019E000002801D0FEF74EFF06B010BD00040040F5
:1019F000B00000201F03000070477047704710B50B
:101A0000FFF794FA10BD10B590B030216846FEF78C
:101A1000C5FB002412200F94009001200D94039028
:101A2000059010200E94049006900C94089468463B
:101A3000FFF79EFB07200C900D940E9400210F944D
:101A40000CA8FFF7D1FA10B010BD704710B50948C7
:101A500000688121C905884208DD09200022802113
:101A6000C006FFF757FA0449012008700348FFF742
:101A700032FE10BD1000002000000020B000002049
:101A800070B50268174B184E984201D0B04203D18E
:101A90007024A2434C682243144C154D984208D040
:101AA000B04206D0134EB04203D0A04201D0A842AB
:101AB00004D103263602B243CE6832438026B243B5
:101AC0004E69324302608A68C2620A688262984242
:101AD00003D0A04201D0A84201D1096901630121CC
:101AE000416170BD002C01400004004000440140F1
:101AF000004801400020004030B58468FF252D02D9
:101B00001B021343AC430B432343836030BD826805
:101B100070239A430A4307210A438260704730B515
:101B2000036A046A6408640004628469F025AC43B3
:101B3000120122430A24A3430B438261036230BD96
:101B400030B5036A1024A34303628469036A0F2536
:101B50002D031203AC432243A024A34309011943DC
:101B60008261016230BD2021020C01D0102110469B
:101B7000020A01D010460839020901D01046091F97
:101B8000820801D01046891E420801D0881E704785
:101B9000081A7047F8B5040C8BB2264682B25E4331
:101BA0000D0C1046370C584336048019002179413A
:101BB00016466E43370C36048019794126466E432B
:101BC0008919F8BD8307FF22DB0E9A408907090EA9
:101BD0009940002808DB830809489B001B181868F7
:101BE00090430843186070470007000F08388308C7
:101BF00004489B001B18D86990430843D86170477C
:101C000000E400E000ED00E002E008C8121F08C197
:101C1000002AFAD170477047002001E001C1121F6D
:101C2000002AFBD170470000FFF788F9FFF7EBFEB1
:101C3000FFF77EFEFFF768FEFFF728FEFFF79EFE28
:101C40000925ED060122C0212846FFF763F900228D
:101C500020212846FFF75EF902220C490C48FEF7C6
:101C6000A3FF0A4C8126F605083CFEF78FFD20698C
:101C7000B042FADD20780028F7D10648FFF7B2FC21
:101C8000002240212846FFF745F9EEE70800002032
:101C90002C000020B0000020000000000000000028
:101CA0000102030406070809C81C00080000002000
:101CB0002C000000081C0008F41C00082C00002068
:101CC000C4040000181C0008000000000000000010
:101CD0000000000000000000000000000000000004
:101CE00000000000010000000400000000000000EF
:041CF00000127A0064
:04000005080000B13E
:00000001FF
